{
  "contractName": "DAOProposal",
  "abi": [
    {
      "inputs": [],
      "stateMutability": "nonpayable",
      "type": "constructor"
    },
    {
      "inputs": [
        {
          "internalType": "uint256",
          "name": "",
          "type": "uint256"
        }
      ],
      "name": "Proposals",
      "outputs": [
        {
          "internalType": "address",
          "name": "owner",
          "type": "address"
        },
        {
          "internalType": "string",
          "name": "title",
          "type": "string"
        },
        {
          "internalType": "string",
          "name": "description",
          "type": "string"
        },
        {
          "internalType": "bytes32",
          "name": "proposalId",
          "type": "bytes32"
        },
        {
          "internalType": "uint40",
          "name": "id",
          "type": "uint40"
        },
        {
          "internalType": "uint40",
          "name": "votesYes",
          "type": "uint40"
        },
        {
          "internalType": "uint40",
          "name": "votesNo",
          "type": "uint40"
        },
        {
          "internalType": "bool",
          "name": "executed",
          "type": "bool"
        }
      ],
      "stateMutability": "view",
      "type": "function",
      "constant": true
    },
    {
      "inputs": [],
      "name": "proposalCount",
      "outputs": [
        {
          "internalType": "uint40",
          "name": "",
          "type": "uint40"
        }
      ],
      "stateMutability": "view",
      "type": "function",
      "constant": true
    },
    {
      "inputs": [
        {
          "internalType": "string",
          "name": "_title",
          "type": "string"
        },
        {
          "internalType": "string",
          "name": "_description",
          "type": "string"
        }
      ],
      "name": "createProposal",
      "outputs": [
        {
          "internalType": "uint40",
          "name": "",
          "type": "uint40"
        }
      ],
      "stateMutability": "nonpayable",
      "type": "function"
    },
    {
      "inputs": [
        {
          "internalType": "uint40",
          "name": "proposalIndex",
          "type": "uint40"
        },
        {
          "internalType": "enum DAOProposal.Vote",
          "name": "vote",
          "type": "uint8"
        }
      ],
      "name": "voteOnProposal",
      "outputs": [],
      "stateMutability": "nonpayable",
      "type": "function"
    },
    {
      "inputs": [
        {
          "internalType": "uint40",
          "name": "proposalIndex",
          "type": "uint40"
        }
      ],
      "name": "executeProposal",
      "outputs": [],
      "stateMutability": "nonpayable",
      "type": "function"
    }
  ],
  "bytecode": "0x60806040526000600160006101000a81548164ffffffffff021916908364ffffffffff16021790555034801561003457600080fd5b5061126b806100446000396000f3fe608060405234801561001057600080fd5b50600436106100575760003560e01c806365e481e21461005c5780639052eb0e1461008c578063c6b4bb8f146100a8578063d1dbe7d8146100c4578063da35c664146100fb575b600080fd5b61007660048036038101906100719190610ada565b610119565b6040516100839190610b72565b60405180910390f35b6100a660048036038101906100a19190610bde565b6102c2565b005b6100c260048036038101906100bd9190610c1e565b61056c565b005b6100de60048036038101906100d99190610c81565b61070e565b6040516100f2989796959493929190610dab565b60405180910390f35b6101036108c6565b6040516101109190610b72565b60405180910390f35b600080600080600160009054906101000a900464ffffffffff1664ffffffffff1681526020019081526020016000209050338160000160006101000a81548173ffffffffffffffffffffffffffffffffffffffff021916908373ffffffffffffffffffffffffffffffffffffffff160217905550600160009054906101000a900464ffffffffff168160040160006101000a81548164ffffffffff021916908364ffffffffff160217905550600160009054906101000a900464ffffffffff166040516020016101e99190610e6d565b6040516020818303038152906040528051906020012081600301819055508381600101908051906020019061021f9291906108dd565b50828160020190805190602001906102389291906108dd565b50600081600401600f6101000a81548160ff0219169083151502179055506001600081819054906101000a900464ffffffffff168092919061027990610eb7565b91906101000a81548164ffffffffff021916908364ffffffffff1602179055505060018060009054906101000a900464ffffffffff166102b99190610ee4565b91505092915050565b60008060008464ffffffffff1681526020019081526020016000209050600073ffffffffffffffffffffffffffffffffffffffff168160000160009054906101000a900473ffffffffffffffffffffffffffffffffffffffff1673ffffffffffffffffffffffffffffffffffffffff1603610372576040517f08c379a000000000000000000000000000000000000000000000000000000000815260040161036990610f64565b60405180910390fd5b60001515600260003373ffffffffffffffffffffffffffffffffffffffff1673ffffffffffffffffffffffffffffffffffffffff16815260200190815260200160002060008360030154815260200190815260200160002060009054906101000a900460ff1615151461041a576040517f08c379a000000000000000000000000000000000000000000000000000000000815260040161041190610ff6565b60405180910390fd5b6000600181111561042e5761042d611016565b5b82600181111561044157610440611016565b5b036104915780600401600581819054906101000a900464ffffffffff168092919061046b90610eb7565b91906101000a81548164ffffffffff021916908364ffffffffff160217905550506104d8565b80600401600a81819054906101000a900464ffffffffff16809291906104b690610eb7565b91906101000a81548164ffffffffff021916908364ffffffffff160217905550505b6001600260003373ffffffffffffffffffffffffffffffffffffffff1673ffffffffffffffffffffffffffffffffffffffff16815260200190815260200160002060008560405160200161052c9190610e6d565b60405160208183030381529060405280519060200120815260200190815260200160002060006101000a81548160ff021916908315150217905550505050565b60008060008364ffffffffff16815260200190815260200160002090503373ffffffffffffffffffffffffffffffffffffffff168160000160009054906101000a900473ffffffffffffffffffffffffffffffffffffffff1673ffffffffffffffffffffffffffffffffffffffff161461061b576040517f08c379a0000000000000000000000000000000000000000000000000000000008152600401610612906110b7565b60405180910390fd5b80600401600a9054906101000a900464ffffffffff1664ffffffffff168160040160059054906101000a900464ffffffffff1664ffffffffff1611610695576040517f08c379a000000000000000000000000000000000000000000000000000000000815260040161068c90611123565b60405180910390fd5b6000151581600401600f9054906101000a900460ff161515146106ed576040517f08c379a00000000000000000000000000000000000000000000000000000000081526004016106e4906111b5565b60405180910390fd5b600181600401600f6101000a81548160ff0219169083151502179055505050565b60006020528060005260406000206000915090508060000160009054906101000a900473ffffffffffffffffffffffffffffffffffffffff169080600101805461075790611204565b80601f016020809104026020016040519081016040528092919081815260200182805461078390611204565b80156107d05780601f106107a5576101008083540402835291602001916107d0565b820191906000526020600020905b8154815290600101906020018083116107b357829003601f168201915b5050505050908060020180546107e590611204565b80601f016020809104026020016040519081016040528092919081815260200182805461081190611204565b801561085e5780601f106108335761010080835404028352916020019161085e565b820191906000526020600020905b81548152906001019060200180831161084157829003601f168201915b5050505050908060030154908060040160009054906101000a900464ffffffffff16908060040160059054906101000a900464ffffffffff169080600401600a9054906101000a900464ffffffffff169080600401600f9054906101000a900460ff16905088565b600160009054906101000a900464ffffffffff1681565b8280546108e990611204565b90600052602060002090601f01602090048101928261090b5760008555610952565b82601f1061092457805160ff1916838001178555610952565b82800160010185558215610952579182015b82811115610951578251825591602001919060010190610936565b5b50905061095f9190610963565b5090565b5b8082111561097c576000816000905550600101610964565b5090565b6000604051905090565b600080fd5b600080fd5b600080fd5b600080fd5b6000601f19601f8301169050919050565b7f4e487b7100000000000000000000000000000000000000000000000000000000600052604160045260246000fd5b6109e78261099e565b810181811067ffffffffffffffff82111715610a0657610a056109af565b5b80604052505050565b6000610a19610980565b9050610a2582826109de565b919050565b600067ffffffffffffffff821115610a4557610a446109af565b5b610a4e8261099e565b9050602081019050919050565b82818337600083830152505050565b6000610a7d610a7884610a2a565b610a0f565b905082815260208101848484011115610a9957610a98610999565b5b610aa4848285610a5b565b509392505050565b600082601f830112610ac157610ac0610994565b5b8135610ad1848260208601610a6a565b91505092915050565b60008060408385031215610af157610af061098a565b5b600083013567ffffffffffffffff811115610b0f57610b0e61098f565b5b610b1b85828601610aac565b925050602083013567ffffffffffffffff811115610b3c57610b3b61098f565b5b610b4885828601610aac565b9150509250929050565b600064ffffffffff82169050919050565b610b6c81610b52565b82525050565b6000602082019050610b876000830184610b63565b92915050565b610b9681610b52565b8114610ba157600080fd5b50565b600081359050610bb381610b8d565b92915050565b60028110610bc657600080fd5b50565b600081359050610bd881610bb9565b92915050565b60008060408385031215610bf557610bf461098a565b5b6000610c0385828601610ba4565b9250506020610c1485828601610bc9565b9150509250929050565b600060208284031215610c3457610c3361098a565b5b6000610c4284828501610ba4565b91505092915050565b6000819050919050565b610c5e81610c4b565b8114610c6957600080fd5b50565b600081359050610c7b81610c55565b92915050565b600060208284031215610c9757610c9661098a565b5b6000610ca584828501610c6c565b91505092915050565b600073ffffffffffffffffffffffffffffffffffffffff82169050919050565b6000610cd982610cae565b9050919050565b610ce981610cce565b82525050565b600081519050919050565b600082825260208201905092915050565b60005b83811015610d29578082015181840152602081019050610d0e565b83811115610d38576000848401525b50505050565b6000610d4982610cef565b610d538185610cfa565b9350610d63818560208601610d0b565b610d6c8161099e565b840191505092915050565b6000819050919050565b610d8a81610d77565b82525050565b60008115159050919050565b610da581610d90565b82525050565b600061010082019050610dc1600083018b610ce0565b8181036020830152610dd3818a610d3e565b90508181036040830152610de78189610d3e565b9050610df66060830188610d81565b610e036080830187610b63565b610e1060a0830186610b63565b610e1d60c0830185610b63565b610e2a60e0830184610d9c565b9998505050505050505050565b60008160d81b9050919050565b6000610e4f82610e37565b9050919050565b610e67610e6282610b52565b610e44565b82525050565b6000610e798284610e56565b60058201915081905092915050565b7f4e487b7100000000000000000000000000000000000000000000000000000000600052601160045260246000fd5b6000610ec282610b52565b915064ffffffffff8203610ed957610ed8610e88565b5b600182019050919050565b6000610eef82610b52565b9150610efa83610b52565b925082821015610f0d57610f0c610e88565b5b828203905092915050565b7f5468652070726f706f73616c20646f6573206e6f742065786973740000000000600082015250565b6000610f4e601b83610cfa565b9150610f5982610f18565b602082019050919050565b60006020820190508181036000830152610f7d81610f41565b9050919050565b7f596f75206861766520616c726561647920766f746564206f6e2074686973207060008201527f726f706f73616c00000000000000000000000000000000000000000000000000602082015250565b6000610fe0602783610cfa565b9150610feb82610f84565b604082019050919050565b6000602082019050818103600083015261100f81610fd3565b9050919050565b7f4e487b7100000000000000000000000000000000000000000000000000000000600052602160045260246000fd5b7f596f7520617265206e6f7420746865206f776e6572206f66207468697320707260008201527f6f706f73616c0000000000000000000000000000000000000000000000000000602082015250565b60006110a1602683610cfa565b91506110ac82611045565b604082019050919050565b600060208201905081810360008301526110d081611094565b9050919050565b7f50726f706f73616c20686173206e6f7420706173736564000000000000000000600082015250565b600061110d601783610cfa565b9150611118826110d7565b602082019050919050565b6000602082019050818103600083015261113c81611100565b9050919050565b7f50726f706f73616c2068617320616c7265616479206265656e2065786563757460008201527f6564000000000000000000000000000000000000000000000000000000000000602082015250565b600061119f602283610cfa565b91506111aa82611143565b604082019050919050565b600060208201905081810360008301526111ce81611192565b9050919050565b7f4e487b7100000000000000000000000000000000000000000000000000000000600052602260045260246000fd5b6000600282049050600182168061121c57607f821691505b60208210810361122f5761122e6111d5565b5b5091905056fea264697066735822122010729db73b6904cd00c8c3d512c48148a6f64f4499b2f218303583d2982be02164736f6c634300080d0033",
  "immutableReferences": {},
  "source": "// SPDX-License-Identifier: MIT\npragma solidity ^0.8.0;\n\ncontract DAOProposal {\n    struct Proposal {\n        address owner;\n        string title;\n        string description;\n        bytes32 proposalId;\n        uint40 id;\n        uint40 votesYes;\n        uint40 votesNo;\n        bool executed;\n    }\n\n    enum Vote {yes, no}\n\n    mapping (uint => Proposal) public Proposals;\n    uint40 public proposalCount = 0;\n    mapping (address => mapping(bytes32 => bool))  votes;\n\n\n    constructor() {\n\n    }\n\n    function createProposal(string memory _title, string memory _description) external returns (uint40){\n        Proposal storage proposal = Proposals[proposalCount];\n        proposal.owner = msg.sender;\n        proposal.id = proposalCount; // we use the hash of the proposal index as the id to avoid collisions\n        proposal.proposalId = keccak256(abi.encodePacked(proposalCount));\n        proposal.title = _title;\n        proposal.description = _description;\n        proposal.executed = false;\n        proposalCount++;\n        return proposalCount - 1;\n    }\n\n    function voteOnProposal(uint40 proposalIndex, Vote vote) external  {\n        Proposal storage proposal = Proposals[proposalIndex];\n        require(proposal.owner != address(0), \"The proposal does not exist\");\n        require(votes[msg.sender][proposal.proposalId] == false, \"You have already voted on this proposal\");\n        if (vote == Vote.yes) {\n            proposal.votesYes++;\n        } else {\n            proposal.votesNo++;\n        }\n        votes[msg.sender][keccak256(abi.encodePacked(proposalIndex))] = true;\n    }\n\n    function executeProposal(uint40 proposalIndex) external {\n        Proposal storage proposal = Proposals[proposalIndex];\n        // require(proposal.id != 0, \"Proposal does not exist\");\n        require(proposal.owner == msg.sender, \"You are not the owner of this proposal\");\n        require(proposal.votesYes > proposal.votesNo, \"Proposal has not passed\");\n        require(proposal.executed == false, \"Proposal has already been executed\");\n        proposal.executed = true;\n    }\n\n}",
  "sourcePath": "/Users/timothyshen/how-to-create-a-on-chain-DAO-on-BSC/06-Build an on-chain DAO on BSC/contracts/Proposal.sol",
  "compiler": {
    "name": "solc",
    "version": "0.8.13+commit.abaa5c0e.Emscripten.clang"
  },
  "schemaVersion": "3.4.13",
  "updatedAt": "2023-04-12T20:57:41.225Z",
  "networkType": "ethereum",
  "devdoc": {
    "kind": "dev",
    "methods": {},
    "version": 1
  },
  "userdoc": {
    "kind": "user",
    "methods": {},
    "version": 1
  }
}