{
  "contractName": "NFTCollection",
  "abi": [
    {
      "inputs": [],
      "stateMutability": "nonpayable",
      "type": "constructor"
    },
    {
      "anonymous": false,
      "inputs": [
        {
          "indexed": true,
          "internalType": "address",
          "name": "owner",
          "type": "address"
        },
        {
          "indexed": true,
          "internalType": "address",
          "name": "approved",
          "type": "address"
        },
        {
          "indexed": true,
          "internalType": "uint256",
          "name": "tokenId",
          "type": "uint256"
        }
      ],
      "name": "Approval",
      "type": "event"
    },
    {
      "anonymous": false,
      "inputs": [
        {
          "indexed": true,
          "internalType": "address",
          "name": "owner",
          "type": "address"
        },
        {
          "indexed": true,
          "internalType": "address",
          "name": "operator",
          "type": "address"
        },
        {
          "indexed": false,
          "internalType": "bool",
          "name": "approved",
          "type": "bool"
        }
      ],
      "name": "ApprovalForAll",
      "type": "event"
    },
    {
      "anonymous": false,
      "inputs": [
        {
          "indexed": true,
          "internalType": "address",
          "name": "previousOwner",
          "type": "address"
        },
        {
          "indexed": true,
          "internalType": "address",
          "name": "newOwner",
          "type": "address"
        }
      ],
      "name": "OwnershipTransferred",
      "type": "event"
    },
    {
      "anonymous": false,
      "inputs": [
        {
          "indexed": false,
          "internalType": "address",
          "name": "account",
          "type": "address"
        }
      ],
      "name": "Paused",
      "type": "event"
    },
    {
      "anonymous": false,
      "inputs": [
        {
          "indexed": true,
          "internalType": "address",
          "name": "from",
          "type": "address"
        },
        {
          "indexed": true,
          "internalType": "address",
          "name": "to",
          "type": "address"
        },
        {
          "indexed": true,
          "internalType": "uint256",
          "name": "tokenId",
          "type": "uint256"
        }
      ],
      "name": "Transfer",
      "type": "event"
    },
    {
      "anonymous": false,
      "inputs": [
        {
          "indexed": false,
          "internalType": "address",
          "name": "account",
          "type": "address"
        }
      ],
      "name": "Unpaused",
      "type": "event"
    },
    {
      "inputs": [],
      "name": "MAX_SUPPLY",
      "outputs": [
        {
          "internalType": "uint256",
          "name": "",
          "type": "uint256"
        }
      ],
      "stateMutability": "view",
      "type": "function"
    },
    {
      "inputs": [],
      "name": "MINT_PRICE",
      "outputs": [
        {
          "internalType": "uint256",
          "name": "",
          "type": "uint256"
        }
      ],
      "stateMutability": "view",
      "type": "function"
    },
    {
      "inputs": [
        {
          "internalType": "address",
          "name": "to",
          "type": "address"
        },
        {
          "internalType": "uint256",
          "name": "tokenId",
          "type": "uint256"
        }
      ],
      "name": "approve",
      "outputs": [],
      "stateMutability": "nonpayable",
      "type": "function"
    },
    {
      "inputs": [
        {
          "internalType": "address",
          "name": "owner",
          "type": "address"
        }
      ],
      "name": "balanceOf",
      "outputs": [
        {
          "internalType": "uint256",
          "name": "",
          "type": "uint256"
        }
      ],
      "stateMutability": "view",
      "type": "function"
    },
    {
      "inputs": [
        {
          "internalType": "uint256",
          "name": "tokenId",
          "type": "uint256"
        }
      ],
      "name": "getApproved",
      "outputs": [
        {
          "internalType": "address",
          "name": "",
          "type": "address"
        }
      ],
      "stateMutability": "view",
      "type": "function"
    },
    {
      "inputs": [
        {
          "internalType": "address",
          "name": "owner",
          "type": "address"
        },
        {
          "internalType": "address",
          "name": "operator",
          "type": "address"
        }
      ],
      "name": "isApprovedForAll",
      "outputs": [
        {
          "internalType": "bool",
          "name": "",
          "type": "bool"
        }
      ],
      "stateMutability": "view",
      "type": "function"
    },
    {
      "inputs": [],
      "name": "name",
      "outputs": [
        {
          "internalType": "string",
          "name": "",
          "type": "string"
        }
      ],
      "stateMutability": "view",
      "type": "function"
    },
    {
      "inputs": [],
      "name": "owner",
      "outputs": [
        {
          "internalType": "address",
          "name": "",
          "type": "address"
        }
      ],
      "stateMutability": "view",
      "type": "function"
    },
    {
      "inputs": [
        {
          "internalType": "uint256",
          "name": "tokenId",
          "type": "uint256"
        }
      ],
      "name": "ownerOf",
      "outputs": [
        {
          "internalType": "address",
          "name": "",
          "type": "address"
        }
      ],
      "stateMutability": "view",
      "type": "function"
    },
    {
      "inputs": [],
      "name": "paused",
      "outputs": [
        {
          "internalType": "bool",
          "name": "",
          "type": "bool"
        }
      ],
      "stateMutability": "view",
      "type": "function"
    },
    {
      "inputs": [],
      "name": "renounceOwnership",
      "outputs": [],
      "stateMutability": "nonpayable",
      "type": "function"
    },
    {
      "inputs": [
        {
          "internalType": "address",
          "name": "from",
          "type": "address"
        },
        {
          "internalType": "address",
          "name": "to",
          "type": "address"
        },
        {
          "internalType": "uint256",
          "name": "tokenId",
          "type": "uint256"
        }
      ],
      "name": "safeTransferFrom",
      "outputs": [],
      "stateMutability": "nonpayable",
      "type": "function"
    },
    {
      "inputs": [
        {
          "internalType": "address",
          "name": "from",
          "type": "address"
        },
        {
          "internalType": "address",
          "name": "to",
          "type": "address"
        },
        {
          "internalType": "uint256",
          "name": "tokenId",
          "type": "uint256"
        },
        {
          "internalType": "bytes",
          "name": "data",
          "type": "bytes"
        }
      ],
      "name": "safeTransferFrom",
      "outputs": [],
      "stateMutability": "nonpayable",
      "type": "function"
    },
    {
      "inputs": [
        {
          "internalType": "address",
          "name": "operator",
          "type": "address"
        },
        {
          "internalType": "bool",
          "name": "approved",
          "type": "bool"
        }
      ],
      "name": "setApprovalForAll",
      "outputs": [],
      "stateMutability": "nonpayable",
      "type": "function"
    },
    {
      "inputs": [],
      "name": "symbol",
      "outputs": [
        {
          "internalType": "string",
          "name": "",
          "type": "string"
        }
      ],
      "stateMutability": "view",
      "type": "function"
    },
    {
      "inputs": [
        {
          "internalType": "uint256",
          "name": "index",
          "type": "uint256"
        }
      ],
      "name": "tokenByIndex",
      "outputs": [
        {
          "internalType": "uint256",
          "name": "",
          "type": "uint256"
        }
      ],
      "stateMutability": "view",
      "type": "function"
    },
    {
      "inputs": [
        {
          "internalType": "address",
          "name": "owner",
          "type": "address"
        },
        {
          "internalType": "uint256",
          "name": "index",
          "type": "uint256"
        }
      ],
      "name": "tokenOfOwnerByIndex",
      "outputs": [
        {
          "internalType": "uint256",
          "name": "",
          "type": "uint256"
        }
      ],
      "stateMutability": "view",
      "type": "function"
    },
    {
      "inputs": [
        {
          "internalType": "uint256",
          "name": "tokenId",
          "type": "uint256"
        }
      ],
      "name": "tokenURI",
      "outputs": [
        {
          "internalType": "string",
          "name": "",
          "type": "string"
        }
      ],
      "stateMutability": "view",
      "type": "function"
    },
    {
      "inputs": [],
      "name": "totalSupply",
      "outputs": [
        {
          "internalType": "uint256",
          "name": "",
          "type": "uint256"
        }
      ],
      "stateMutability": "view",
      "type": "function"
    },
    {
      "inputs": [
        {
          "internalType": "address",
          "name": "from",
          "type": "address"
        },
        {
          "internalType": "address",
          "name": "to",
          "type": "address"
        },
        {
          "internalType": "uint256",
          "name": "tokenId",
          "type": "uint256"
        }
      ],
      "name": "transferFrom",
      "outputs": [],
      "stateMutability": "nonpayable",
      "type": "function"
    },
    {
      "inputs": [
        {
          "internalType": "address",
          "name": "newOwner",
          "type": "address"
        }
      ],
      "name": "transferOwnership",
      "outputs": [],
      "stateMutability": "nonpayable",
      "type": "function"
    },
    {
      "inputs": [],
      "name": "pause",
      "outputs": [],
      "stateMutability": "nonpayable",
      "type": "function"
    },
    {
      "inputs": [],
      "name": "unpause",
      "outputs": [],
      "stateMutability": "nonpayable",
      "type": "function"
    },
    {
      "inputs": [
        {
          "internalType": "address",
          "name": "to",
          "type": "address"
        }
      ],
      "name": "safeMint",
      "outputs": [],
      "stateMutability": "payable",
      "type": "function"
    },
    {
      "inputs": [
        {
          "internalType": "bytes4",
          "name": "interfaceId",
          "type": "bytes4"
        }
      ],
      "name": "supportsInterface",
      "outputs": [
        {
          "internalType": "bool",
          "name": "",
          "type": "bool"
        }
      ],
      "stateMutability": "view",
      "type": "function"
    }
  ],
  "bytecode": "0x608060405266b1a2bc2ec50000600c55600a600d553480156200002157600080fd5b506040518060400160405280600d81526020017f4e4654436f6c6c656374696f6e000000000000000000000000000000000000008152506040518060400160405280600381526020017f4d544b00000000000000000000000000000000000000000000000000000000008152508160009080519060200190620000a6929190620001d1565b508060019080519060200190620000bf929190620001d1565b5050506000600a60006101000a81548160ff021916908315150217905550620000fd620000f16200010360201b60201c565b6200010b60201b60201c565b620002e5565b600033905090565b6000600a60019054906101000a900473ffffffffffffffffffffffffffffffffffffffff16905081600a60016101000a81548173ffffffffffffffffffffffffffffffffffffffff021916908373ffffffffffffffffffffffffffffffffffffffff1602179055508173ffffffffffffffffffffffffffffffffffffffff168173ffffffffffffffffffffffffffffffffffffffff167f8be0079c531659141344cd1fd0a4f28419497f9722a3daafe3b4186f6b6457e060405160405180910390a35050565b828054620001df90620002b0565b90600052602060002090601f0160209004810192826200020357600085556200024f565b82601f106200021e57805160ff19168380011785556200024f565b828001600101855582156200024f579182015b828111156200024e57825182559160200191906001019062000231565b5b5090506200025e919062000262565b5090565b5b808211156200027d57600081600090555060010162000263565b5090565b7f4e487b7100000000000000000000000000000000000000000000000000000000600052602260045260246000fd5b60006002820490506001821680620002c957607f821691505b602082108103620002df57620002de62000281565b5b50919050565b61378b80620002f56000396000f3fe6080604052600436106101665760003560e01c80635c975abb116100d157806395d89b411161008a578063c002d23d11610064578063c002d23d14610509578063c87b56dd14610534578063e985e9c514610571578063f2fde38b146105ae57610166565b806395d89b411461048c578063a22cb465146104b7578063b88d4fde146104e057610166565b80635c975abb1461038e5780636352211e146103b957806370a08231146103f6578063715018a6146104335780638456cb591461044a5780638da5cb5b1461046157610166565b80632f745c59116101235780632f745c591461028d57806332cb6b0c146102ca5780633f4ba83a146102f557806340d097c31461030c57806342842e0e146103285780634f6ccce71461035157610166565b806301ffc9a71461016b57806306fdde03146101a8578063081812fc146101d3578063095ea7b31461021057806318160ddd1461023957806323b872dd14610264575b600080fd5b34801561017757600080fd5b50610192600480360381019061018d9190612559565b6105d7565b60405161019f91906125a1565b60405180910390f35b3480156101b457600080fd5b506101bd6105e9565b6040516101ca9190612655565b60405180910390f35b3480156101df57600080fd5b506101fa60048036038101906101f591906126ad565b61067b565b604051610207919061271b565b60405180910390f35b34801561021c57600080fd5b5061023760048036038101906102329190612762565b6106c1565b005b34801561024557600080fd5b5061024e6107d8565b60405161025b91906127b1565b60405180910390f35b34801561027057600080fd5b5061028b600480360381019061028691906127cc565b6107e5565b005b34801561029957600080fd5b506102b460048036038101906102af9190612762565b610845565b6040516102c191906127b1565b60405180910390f35b3480156102d657600080fd5b506102df6108ea565b6040516102ec91906127b1565b60405180910390f35b34801561030157600080fd5b5061030a6108f0565b005b6103266004803603810190610321919061281f565b610902565b005b34801561033457600080fd5b5061034f600480360381019061034a91906127cc565b6109c0565b005b34801561035d57600080fd5b50610378600480360381019061037391906126ad565b6109e0565b60405161038591906127b1565b60405180910390f35b34801561039a57600080fd5b506103a3610a51565b6040516103b091906125a1565b60405180910390f35b3480156103c557600080fd5b506103e060048036038101906103db91906126ad565b610a68565b6040516103ed919061271b565b60405180910390f35b34801561040257600080fd5b5061041d6004803603810190610418919061281f565b610aee565b60405161042a91906127b1565b60405180910390f35b34801561043f57600080fd5b50610448610ba5565b005b34801561045657600080fd5b5061045f610bb9565b005b34801561046d57600080fd5b50610476610bcb565b604051610483919061271b565b60405180910390f35b34801561049857600080fd5b506104a1610bf5565b6040516104ae9190612655565b60405180910390f35b3480156104c357600080fd5b506104de60048036038101906104d99190612878565b610c87565b005b3480156104ec57600080fd5b50610507600480360381019061050291906129ed565b610c9d565b005b34801561051557600080fd5b5061051e610cff565b60405161052b91906127b1565b60405180910390f35b34801561054057600080fd5b5061055b600480360381019061055691906126ad565b610d05565b6040516105689190612655565b60405180910390f35b34801561057d57600080fd5b5061059860048036038101906105939190612a70565b610d6d565b6040516105a591906125a1565b60405180910390f35b3480156105ba57600080fd5b506105d560048036038101906105d0919061281f565b610e01565b005b60006105e282610e84565b9050919050565b6060600080546105f890612adf565b80601f016020809104026020016040519081016040528092919081815260200182805461062490612adf565b80156106715780601f1061064657610100808354040283529160200191610671565b820191906000526020600020905b81548152906001019060200180831161065457829003601f168201915b5050505050905090565b600061068682610efe565b6004600083815260200190815260200160002060009054906101000a900473ffffffffffffffffffffffffffffffffffffffff169050919050565b60006106cc82610a68565b90508073ffffffffffffffffffffffffffffffffffffffff168373ffffffffffffffffffffffffffffffffffffffff160361073c576040517f08c379a000000000000000000000000000000000000000000000000000000000815260040161073390612b82565b60405180910390fd5b8073ffffffffffffffffffffffffffffffffffffffff1661075b610f49565b73ffffffffffffffffffffffffffffffffffffffff16148061078a575061078981610784610f49565b610d6d565b5b6107c9576040517f08c379a00000000000000000000000000000000000000000000000000000000081526004016107c090612c14565b60405180910390fd5b6107d38383610f51565b505050565b6000600880549050905090565b6107f66107f0610f49565b8261100a565b610835576040517f08c379a000000000000000000000000000000000000000000000000000000000815260040161082c90612ca6565b60405180910390fd5b61084083838361109f565b505050565b600061085083610aee565b8210610891576040517f08c379a000000000000000000000000000000000000000000000000000000000815260040161088890612d38565b60405180910390fd5b600660008473ffffffffffffffffffffffffffffffffffffffff1673ffffffffffffffffffffffffffffffffffffffff168152602001908152602001600020600083815260200190815260200160002054905092915050565b600d5481565b6108f8611398565b610900611416565b565b61090a611398565b600d546109156107d8565b10610955576040517f08c379a000000000000000000000000000000000000000000000000000000000815260040161094c90612da4565b60405180910390fd5b600c5434101561099a576040517f08c379a000000000000000000000000000000000000000000000000000000000815260040161099190612e10565b60405180910390fd5b60006109a6600b611479565b90506109b2600b611487565b6109bc828261149d565b5050565b6109db83838360405180602001604052806000815250610c9d565b505050565b60006109ea6107d8565b8210610a2b576040517f08c379a0000000000000000000000000000000000000000000000000000000008152600401610a2290612ea2565b60405180910390fd5b60088281548110610a3f57610a3e612ec2565b5b90600052602060002001549050919050565b6000600a60009054906101000a900460ff16905090565b600080610a74836114bb565b9050600073ffffffffffffffffffffffffffffffffffffffff168173ffffffffffffffffffffffffffffffffffffffff1603610ae5576040517f08c379a0000000000000000000000000000000000000000000000000000000008152600401610adc90612f3d565b60405180910390fd5b80915050919050565b60008073ffffffffffffffffffffffffffffffffffffffff168273ffffffffffffffffffffffffffffffffffffffff1603610b5e576040517f08c379a0000000000000000000000000000000000000000000000000000000008152600401610b5590612fcf565b60405180910390fd5b600360008373ffffffffffffffffffffffffffffffffffffffff1673ffffffffffffffffffffffffffffffffffffffff168152602001908152602001600020549050919050565b610bad611398565b610bb760006114f8565b565b610bc1611398565b610bc96115be565b565b6000600a60019054906101000a900473ffffffffffffffffffffffffffffffffffffffff16905090565b606060018054610c0490612adf565b80601f0160208091040260200160405190810160405280929190818152602001828054610c3090612adf565b8015610c7d5780601f10610c5257610100808354040283529160200191610c7d565b820191906000526020600020905b815481529060010190602001808311610c6057829003601f168201915b5050505050905090565b610c99610c92610f49565b8383611621565b5050565b610cae610ca8610f49565b8361100a565b610ced576040517f08c379a0000000000000000000000000000000000000000000000000000000008152600401610ce490612ca6565b60405180910390fd5b610cf98484848461178d565b50505050565b600c5481565b6060610d1082610efe565b6000610d1a6117e9565b90506000815111610d3a5760405180602001604052806000815250610d65565b80610d4484611800565b604051602001610d5592919061302b565b6040516020818303038152906040525b915050919050565b6000600560008473ffffffffffffffffffffffffffffffffffffffff1673ffffffffffffffffffffffffffffffffffffffff16815260200190815260200160002060008373ffffffffffffffffffffffffffffffffffffffff1673ffffffffffffffffffffffffffffffffffffffff16815260200190815260200160002060009054906101000a900460ff16905092915050565b610e09611398565b600073ffffffffffffffffffffffffffffffffffffffff168173ffffffffffffffffffffffffffffffffffffffff1603610e78576040517f08c379a0000000000000000000000000000000000000000000000000000000008152600401610e6f906130c1565b60405180910390fd5b610e81816114f8565b50565b60007f780e9d63000000000000000000000000000000000000000000000000000000007bffffffffffffffffffffffffffffffffffffffffffffffffffffffff1916827bffffffffffffffffffffffffffffffffffffffffffffffffffffffff19161480610ef75750610ef6826118ce565b5b9050919050565b610f07816119b0565b610f46576040517f08c379a0000000000000000000000000000000000000000000000000000000008152600401610f3d90612f3d565b60405180910390fd5b50565b600033905090565b816004600083815260200190815260200160002060006101000a81548173ffffffffffffffffffffffffffffffffffffffff021916908373ffffffffffffffffffffffffffffffffffffffff160217905550808273ffffffffffffffffffffffffffffffffffffffff16610fc483610a68565b73ffffffffffffffffffffffffffffffffffffffff167f8c5be1e5ebec7d5bd14f71427d1e84f3dd0314c0f7b2291e5b200ac8c7c3b92560405160405180910390a45050565b60008061101683610a68565b90508073ffffffffffffffffffffffffffffffffffffffff168473ffffffffffffffffffffffffffffffffffffffff16148061105857506110578185610d6d565b5b8061109657508373ffffffffffffffffffffffffffffffffffffffff1661107e8461067b565b73ffffffffffffffffffffffffffffffffffffffff16145b91505092915050565b8273ffffffffffffffffffffffffffffffffffffffff166110bf82610a68565b73ffffffffffffffffffffffffffffffffffffffff1614611115576040517f08c379a000000000000000000000000000000000000000000000000000000000815260040161110c90613153565b60405180910390fd5b600073ffffffffffffffffffffffffffffffffffffffff168273ffffffffffffffffffffffffffffffffffffffff1603611184576040517f08c379a000000000000000000000000000000000000000000000000000000000815260040161117b906131e5565b60405180910390fd5b61119183838360016119f1565b8273ffffffffffffffffffffffffffffffffffffffff166111b182610a68565b73ffffffffffffffffffffffffffffffffffffffff1614611207576040517f08c379a00000000000000000000000000000000000000000000000000000000081526004016111fe90613153565b60405180910390fd5b6004600082815260200190815260200160002060006101000a81549073ffffffffffffffffffffffffffffffffffffffff02191690556001600360008573ffffffffffffffffffffffffffffffffffffffff1673ffffffffffffffffffffffffffffffffffffffff168152602001908152602001600020600082825403925050819055506001600360008473ffffffffffffffffffffffffffffffffffffffff1673ffffffffffffffffffffffffffffffffffffffff16815260200190815260200160002060008282540192505081905550816002600083815260200190815260200160002060006101000a81548173ffffffffffffffffffffffffffffffffffffffff021916908373ffffffffffffffffffffffffffffffffffffffff160217905550808273ffffffffffffffffffffffffffffffffffffffff168473ffffffffffffffffffffffffffffffffffffffff167fddf252ad1be2c89b69c2b068fc378daa952ba7f163c4a11628f55a4df523b3ef60405160405180910390a46113938383836001611a0b565b505050565b6113a0610f49565b73ffffffffffffffffffffffffffffffffffffffff166113be610bcb565b73ffffffffffffffffffffffffffffffffffffffff1614611414576040517f08c379a000000000000000000000000000000000000000000000000000000000815260040161140b90613251565b60405180910390fd5b565b61141e611a11565b6000600a60006101000a81548160ff0219169083151502179055507f5db9ee0a495bf2e6ff9c91a7834c1ba4fdd244a5e8aa4e537bd38aeae4b073aa611462610f49565b60405161146f919061271b565b60405180910390a1565b600081600001549050919050565b6001816000016000828254019250508190555050565b6114b7828260405180602001604052806000815250611a5a565b5050565b60006002600083815260200190815260200160002060009054906101000a900473ffffffffffffffffffffffffffffffffffffffff169050919050565b6000600a60019054906101000a900473ffffffffffffffffffffffffffffffffffffffff16905081600a60016101000a81548173ffffffffffffffffffffffffffffffffffffffff021916908373ffffffffffffffffffffffffffffffffffffffff1602179055508173ffffffffffffffffffffffffffffffffffffffff168173ffffffffffffffffffffffffffffffffffffffff167f8be0079c531659141344cd1fd0a4f28419497f9722a3daafe3b4186f6b6457e060405160405180910390a35050565b6115c6611ab5565b6001600a60006101000a81548160ff0219169083151502179055507f62e78cea01bee320cd4e420270b5ea74000d11b0c9f74754ebdbfc544b05a25861160a610f49565b604051611617919061271b565b60405180910390a1565b8173ffffffffffffffffffffffffffffffffffffffff168373ffffffffffffffffffffffffffffffffffffffff160361168f576040517f08c379a0000000000000000000000000000000000000000000000000000000008152600401611686906132bd565b60405180910390fd5b80600560008573ffffffffffffffffffffffffffffffffffffffff1673ffffffffffffffffffffffffffffffffffffffff16815260200190815260200160002060008473ffffffffffffffffffffffffffffffffffffffff1673ffffffffffffffffffffffffffffffffffffffff16815260200190815260200160002060006101000a81548160ff0219169083151502179055508173ffffffffffffffffffffffffffffffffffffffff168373ffffffffffffffffffffffffffffffffffffffff167f17307eab39ab6107e8899845ad3d59bd9653f200f220920489ca2b5937696c318360405161178091906125a1565b60405180910390a3505050565b61179884848461109f565b6117a484848484611aff565b6117e3576040517f08c379a00000000000000000000000000000000000000000000000000000000081526004016117da9061334f565b60405180910390fd5b50505050565b606060405180602001604052806000815250905090565b60606000600161180f84611c86565b01905060008167ffffffffffffffff81111561182e5761182d6128c2565b5b6040519080825280601f01601f1916602001820160405280156118605781602001600182028036833780820191505090505b509050600082602001820190505b6001156118c3578080600190039150507f3031323334353637383961626364656600000000000000000000000000000000600a86061a8153600a85816118b7576118b661336f565b5b0494506000850361186e575b819350505050919050565b60007f80ac58cd000000000000000000000000000000000000000000000000000000007bffffffffffffffffffffffffffffffffffffffffffffffffffffffff1916827bffffffffffffffffffffffffffffffffffffffffffffffffffffffff1916148061199957507f5b5e139f000000000000000000000000000000000000000000000000000000007bffffffffffffffffffffffffffffffffffffffffffffffffffffffff1916827bffffffffffffffffffffffffffffffffffffffffffffffffffffffff1916145b806119a957506119a882611dd9565b5b9050919050565b60008073ffffffffffffffffffffffffffffffffffffffff166119d2836114bb565b73ffffffffffffffffffffffffffffffffffffffff1614159050919050565b6119f9611ab5565b611a0584848484611e43565b50505050565b50505050565b611a19610a51565b611a58576040517f08c379a0000000000000000000000000000000000000000000000000000000008152600401611a4f906133ea565b60405180910390fd5b565b611a648383611fa1565b611a716000848484611aff565b611ab0576040517f08c379a0000000000000000000000000000000000000000000000000000000008152600401611aa79061334f565b60405180910390fd5b505050565b611abd610a51565b15611afd576040517f08c379a0000000000000000000000000000000000000000000000000000000008152600401611af490613456565b60405180910390fd5b565b6000611b208473ffffffffffffffffffffffffffffffffffffffff166121be565b15611c79578373ffffffffffffffffffffffffffffffffffffffff1663150b7a02611b49610f49565b8786866040518563ffffffff1660e01b8152600401611b6b94939291906134cb565b6020604051808303816000875af1925050508015611ba757506040513d601f19601f82011682018060405250810190611ba4919061352c565b60015b611c29573d8060008114611bd7576040519150601f19603f3d011682016040523d82523d6000602084013e611bdc565b606091505b506000815103611c21576040517f08c379a0000000000000000000000000000000000000000000000000000000008152600401611c189061334f565b60405180910390fd5b805181602001fd5b63150b7a0260e01b7bffffffffffffffffffffffffffffffffffffffffffffffffffffffff1916817bffffffffffffffffffffffffffffffffffffffffffffffffffffffff191614915050611c7e565b600190505b949350505050565b600080600090507a184f03e93ff9f4daa797ed6e38ed64bf6a1f0100000000000000008310611ce4577a184f03e93ff9f4daa797ed6e38ed64bf6a1f0100000000000000008381611cda57611cd961336f565b5b0492506040810190505b6d04ee2d6d415b85acef81000000008310611d21576d04ee2d6d415b85acef81000000008381611d1757611d1661336f565b5b0492506020810190505b662386f26fc100008310611d5057662386f26fc100008381611d4657611d4561336f565b5b0492506010810190505b6305f5e1008310611d79576305f5e1008381611d6f57611d6e61336f565b5b0492506008810190505b6127108310611d9e576127108381611d9457611d9361336f565b5b0492506004810190505b60648310611dc15760648381611db757611db661336f565b5b0492506002810190505b600a8310611dd0576001810190505b80915050919050565b60007f01ffc9a7000000000000000000000000000000000000000000000000000000007bffffffffffffffffffffffffffffffffffffffffffffffffffffffff1916827bffffffffffffffffffffffffffffffffffffffffffffffffffffffff1916149050919050565b611e4f848484846121e1565b6001811115611e93576040517f08c379a0000000000000000000000000000000000000000000000000000000008152600401611e8a906135cb565b60405180910390fd5b6000829050600073ffffffffffffffffffffffffffffffffffffffff168573ffffffffffffffffffffffffffffffffffffffff1603611eda57611ed5816121e7565b611f19565b8373ffffffffffffffffffffffffffffffffffffffff168573ffffffffffffffffffffffffffffffffffffffff1614611f1857611f178582612230565b5b5b600073ffffffffffffffffffffffffffffffffffffffff168473ffffffffffffffffffffffffffffffffffffffff1603611f5b57611f568161239d565b611f9a565b8473ffffffffffffffffffffffffffffffffffffffff168473ffffffffffffffffffffffffffffffffffffffff1614611f9957611f98848261246e565b5b5b5050505050565b600073ffffffffffffffffffffffffffffffffffffffff168273ffffffffffffffffffffffffffffffffffffffff1603612010576040517f08c379a000000000000000000000000000000000000000000000000000000000815260040161200790613637565b60405180910390fd5b612019816119b0565b15612059576040517f08c379a0000000000000000000000000000000000000000000000000000000008152600401612050906136a3565b60405180910390fd5b6120676000838360016119f1565b612070816119b0565b156120b0576040517f08c379a00000000000000000000000000000000000000000000000000000000081526004016120a7906136a3565b60405180910390fd5b6001600360008473ffffffffffffffffffffffffffffffffffffffff1673ffffffffffffffffffffffffffffffffffffffff16815260200190815260200160002060008282540192505081905550816002600083815260200190815260200160002060006101000a81548173ffffffffffffffffffffffffffffffffffffffff021916908373ffffffffffffffffffffffffffffffffffffffff160217905550808273ffffffffffffffffffffffffffffffffffffffff16600073ffffffffffffffffffffffffffffffffffffffff167fddf252ad1be2c89b69c2b068fc378daa952ba7f163c4a11628f55a4df523b3ef60405160405180910390a46121ba600083836001611a0b565b5050565b6000808273ffffffffffffffffffffffffffffffffffffffff163b119050919050565b50505050565b6008805490506009600083815260200190815260200160002081905550600881908060018154018082558091505060019003906000526020600020016000909190919091505550565b6000600161223d84610aee565b61224791906136f2565b905060006007600084815260200190815260200160002054905081811461232c576000600660008673ffffffffffffffffffffffffffffffffffffffff1673ffffffffffffffffffffffffffffffffffffffff168152602001908152602001600020600084815260200190815260200160002054905080600660008773ffffffffffffffffffffffffffffffffffffffff1673ffffffffffffffffffffffffffffffffffffffff168152602001908152602001600020600084815260200190815260200160002081905550816007600083815260200190815260200160002081905550505b6007600084815260200190815260200160002060009055600660008573ffffffffffffffffffffffffffffffffffffffff1673ffffffffffffffffffffffffffffffffffffffff16815260200190815260200160002060008381526020019081526020016000206000905550505050565b600060016008805490506123b191906136f2565b90506000600960008481526020019081526020016000205490506000600883815481106123e1576123e0612ec2565b5b90600052602060002001549050806008838154811061240357612402612ec2565b5b90600052602060002001819055508160096000838152602001908152602001600020819055506009600085815260200190815260200160002060009055600880548061245257612451613726565b5b6001900381819060005260206000200160009055905550505050565b600061247983610aee565b905081600660008573ffffffffffffffffffffffffffffffffffffffff1673ffffffffffffffffffffffffffffffffffffffff168152602001908152602001600020600083815260200190815260200160002081905550806007600084815260200190815260200160002081905550505050565b6000604051905090565b600080fd5b600080fd5b60007fffffffff0000000000000000000000000000000000000000000000000000000082169050919050565b61253681612501565b811461254157600080fd5b50565b6000813590506125538161252d565b92915050565b60006020828403121561256f5761256e6124f7565b5b600061257d84828501612544565b91505092915050565b60008115159050919050565b61259b81612586565b82525050565b60006020820190506125b66000830184612592565b92915050565b600081519050919050565b600082825260208201905092915050565b60005b838110156125f65780820151818401526020810190506125db565b83811115612605576000848401525b50505050565b6000601f19601f8301169050919050565b6000612627826125bc565b61263181856125c7565b93506126418185602086016125d8565b61264a8161260b565b840191505092915050565b6000602082019050818103600083015261266f818461261c565b905092915050565b6000819050919050565b61268a81612677565b811461269557600080fd5b50565b6000813590506126a781612681565b92915050565b6000602082840312156126c3576126c26124f7565b5b60006126d184828501612698565b91505092915050565b600073ffffffffffffffffffffffffffffffffffffffff82169050919050565b6000612705826126da565b9050919050565b612715816126fa565b82525050565b6000602082019050612730600083018461270c565b92915050565b61273f816126fa565b811461274a57600080fd5b50565b60008135905061275c81612736565b92915050565b60008060408385031215612779576127786124f7565b5b60006127878582860161274d565b925050602061279885828601612698565b9150509250929050565b6127ab81612677565b82525050565b60006020820190506127c660008301846127a2565b92915050565b6000806000606084860312156127e5576127e46124f7565b5b60006127f38682870161274d565b93505060206128048682870161274d565b925050604061281586828701612698565b9150509250925092565b600060208284031215612835576128346124f7565b5b60006128438482850161274d565b91505092915050565b61285581612586565b811461286057600080fd5b50565b6000813590506128728161284c565b92915050565b6000806040838503121561288f5761288e6124f7565b5b600061289d8582860161274d565b92505060206128ae85828601612863565b9150509250929050565b600080fd5b600080fd5b7f4e487b7100000000000000000000000000000000000000000000000000000000600052604160045260246000fd5b6128fa8261260b565b810181811067ffffffffffffffff82111715612919576129186128c2565b5b80604052505050565b600061292c6124ed565b905061293882826128f1565b919050565b600067ffffffffffffffff821115612958576129576128c2565b5b6129618261260b565b9050602081019050919050565b82818337600083830152505050565b600061299061298b8461293d565b612922565b9050828152602081018484840111156129ac576129ab6128bd565b5b6129b784828561296e565b509392505050565b600082601f8301126129d4576129d36128b8565b5b81356129e484826020860161297d565b91505092915050565b60008060008060808587031215612a0757612a066124f7565b5b6000612a158782880161274d565b9450506020612a268782880161274d565b9350506040612a3787828801612698565b925050606085013567ffffffffffffffff811115612a5857612a576124fc565b5b612a64878288016129bf565b91505092959194509250565b60008060408385031215612a8757612a866124f7565b5b6000612a958582860161274d565b9250506020612aa68582860161274d565b9150509250929050565b7f4e487b7100000000000000000000000000000000000000000000000000000000600052602260045260246000fd5b60006002820490506001821680612af757607f821691505b602082108103612b0a57612b09612ab0565b5b50919050565b7f4552433732313a20617070726f76616c20746f2063757272656e74206f776e6560008201527f7200000000000000000000000000000000000000000000000000000000000000602082015250565b6000612b6c6021836125c7565b9150612b7782612b10565b604082019050919050565b60006020820190508181036000830152612b9b81612b5f565b9050919050565b7f4552433732313a20617070726f76652063616c6c6572206973206e6f7420746f60008201527f6b656e206f776e6572206f7220617070726f76656420666f7220616c6c000000602082015250565b6000612bfe603d836125c7565b9150612c0982612ba2565b604082019050919050565b60006020820190508181036000830152612c2d81612bf1565b9050919050565b7f4552433732313a2063616c6c6572206973206e6f7420746f6b656e206f776e6560008201527f72206f7220617070726f76656400000000000000000000000000000000000000602082015250565b6000612c90602d836125c7565b9150612c9b82612c34565b604082019050919050565b60006020820190508181036000830152612cbf81612c83565b9050919050565b7f455243373231456e756d657261626c653a206f776e657220696e646578206f7560008201527f74206f6620626f756e6473000000000000000000000000000000000000000000602082015250565b6000612d22602b836125c7565b9150612d2d82612cc6565b604082019050919050565b60006020820190508181036000830152612d5181612d15565b9050919050565b7f43616e2774206d696e7420616e796d6f726520746f6b656e732e000000000000600082015250565b6000612d8e601a836125c7565b9150612d9982612d58565b602082019050919050565b60006020820190508181036000830152612dbd81612d81565b9050919050565b7f4e6f7420656e6f7567682065746865722073656e742e00000000000000000000600082015250565b6000612dfa6016836125c7565b9150612e0582612dc4565b602082019050919050565b60006020820190508181036000830152612e2981612ded565b9050919050565b7f455243373231456e756d657261626c653a20676c6f62616c20696e646578206f60008201527f7574206f6620626f756e64730000000000000000000000000000000000000000602082015250565b6000612e8c602c836125c7565b9150612e9782612e30565b604082019050919050565b60006020820190508181036000830152612ebb81612e7f565b9050919050565b7f4e487b7100000000000000000000000000000000000000000000000000000000600052603260045260246000fd5b7f4552433732313a20696e76616c696420746f6b656e2049440000000000000000600082015250565b6000612f276018836125c7565b9150612f3282612ef1565b602082019050919050565b60006020820190508181036000830152612f5681612f1a565b9050919050565b7f4552433732313a2061646472657373207a65726f206973206e6f74206120766160008201527f6c6964206f776e65720000000000000000000000000000000000000000000000602082015250565b6000612fb96029836125c7565b9150612fc482612f5d565b604082019050919050565b60006020820190508181036000830152612fe881612fac565b9050919050565b600081905092915050565b6000613005826125bc565b61300f8185612fef565b935061301f8185602086016125d8565b80840191505092915050565b60006130378285612ffa565b91506130438284612ffa565b91508190509392505050565b7f4f776e61626c653a206e6577206f776e657220697320746865207a65726f206160008201527f6464726573730000000000000000000000000000000000000000000000000000602082015250565b60006130ab6026836125c7565b91506130b68261304f565b604082019050919050565b600060208201905081810360008301526130da8161309e565b9050919050565b7f4552433732313a207472616e736665722066726f6d20696e636f72726563742060008201527f6f776e6572000000000000000000000000000000000000000000000000000000602082015250565b600061313d6025836125c7565b9150613148826130e1565b604082019050919050565b6000602082019050818103600083015261316c81613130565b9050919050565b7f4552433732313a207472616e7366657220746f20746865207a65726f2061646460008201527f7265737300000000000000000000000000000000000000000000000000000000602082015250565b60006131cf6024836125c7565b91506131da82613173565b604082019050919050565b600060208201905081810360008301526131fe816131c2565b9050919050565b7f4f776e61626c653a2063616c6c6572206973206e6f7420746865206f776e6572600082015250565b600061323b6020836125c7565b915061324682613205565b602082019050919050565b6000602082019050818103600083015261326a8161322e565b9050919050565b7f4552433732313a20617070726f766520746f2063616c6c657200000000000000600082015250565b60006132a76019836125c7565b91506132b282613271565b602082019050919050565b600060208201905081810360008301526132d68161329a565b9050919050565b7f4552433732313a207472616e7366657220746f206e6f6e20455243373231526560008201527f63656976657220696d706c656d656e7465720000000000000000000000000000602082015250565b60006133396032836125c7565b9150613344826132dd565b604082019050919050565b600060208201905081810360008301526133688161332c565b9050919050565b7f4e487b7100000000000000000000000000000000000000000000000000000000600052601260045260246000fd5b7f5061757361626c653a206e6f7420706175736564000000000000000000000000600082015250565b60006133d46014836125c7565b91506133df8261339e565b602082019050919050565b60006020820190508181036000830152613403816133c7565b9050919050565b7f5061757361626c653a2070617573656400000000000000000000000000000000600082015250565b60006134406010836125c7565b915061344b8261340a565b602082019050919050565b6000602082019050818103600083015261346f81613433565b9050919050565b600081519050919050565b600082825260208201905092915050565b600061349d82613476565b6134a78185613481565b93506134b78185602086016125d8565b6134c08161260b565b840191505092915050565b60006080820190506134e0600083018761270c565b6134ed602083018661270c565b6134fa60408301856127a2565b818103606083015261350c8184613492565b905095945050505050565b6000815190506135268161252d565b92915050565b600060208284031215613542576135416124f7565b5b600061355084828501613517565b91505092915050565b7f455243373231456e756d657261626c653a20636f6e736563757469766520747260008201527f616e7366657273206e6f7420737570706f727465640000000000000000000000602082015250565b60006135b56035836125c7565b91506135c082613559565b604082019050919050565b600060208201905081810360008301526135e4816135a8565b9050919050565b7f4552433732313a206d696e7420746f20746865207a65726f2061646472657373600082015250565b60006136216020836125c7565b915061362c826135eb565b602082019050919050565b6000602082019050818103600083015261365081613614565b9050919050565b7f4552433732313a20746f6b656e20616c7265616479206d696e74656400000000600082015250565b600061368d601c836125c7565b915061369882613657565b602082019050919050565b600060208201905081810360008301526136bc81613680565b9050919050565b7f4e487b7100000000000000000000000000000000000000000000000000000000600052601160045260246000fd5b60006136fd82612677565b915061370883612677565b92508282101561371b5761371a6136c3565b5b828203905092915050565b7f4e487b7100000000000000000000000000000000000000000000000000000000600052603160045260246000fdfea26469706673582212200c089e9dbae9a41e00d4301a44e750f00fcb4a231adc3d7b6856f25cdf20a40764736f6c634300080d0033",
  "immutableReferences": {},
  "source": "// SPDX-License-Identifier: MIT\npragma solidity ^0.8.9;\n\nimport \"@openzeppelin/contracts/token/ERC721/ERC721.sol\";\nimport \"@openzeppelin/contracts/token/ERC721/extensions/ERC721Enumerable.sol\";\nimport \"@openzeppelin/contracts/security/Pausable.sol\";\nimport \"@openzeppelin/contracts/access/Ownable.sol\";\nimport \"@openzeppelin/contracts/utils/Counters.sol\";\n\ncontract NFTCollection is ERC721, ERC721Enumerable, Pausable, Ownable {\n    using Counters for Counters.Counter;\n\n    Counters.Counter private _tokenIdCounter;\n\n    uint256 public MINT_PRICE = 0.05 ether;  //Change this value as per your requirement\n    uint public MAX_SUPPLY = 10;            //Change this value as per your requirement\n\n    constructor() ERC721(\"NFTCollection\", \"MTK\") {}\n\n    function pause() public onlyOwner {\n        _pause();\n    }\n\n    function unpause() public onlyOwner {\n        _unpause();\n    }\n\n    function safeMint(address to) public onlyOwner payable{\n        require(totalSupply() < MAX_SUPPLY, \"Can't mint anymore tokens.\");\n        require(msg.value >= MINT_PRICE, \"Not enough ether sent.\");\n\n        uint256 tokenId = _tokenIdCounter.current();\n        _tokenIdCounter.increment();\n        _safeMint(to, tokenId);\n    }\n\n    function _beforeTokenTransfer(address from, address to, uint256 tokenId, uint256 batchSize)\n        internal\n        whenNotPaused\n        override(ERC721, ERC721Enumerable)\n    {\n        super._beforeTokenTransfer(from, to, tokenId, batchSize);\n    }\n\n    // The following functions are overrides required by Solidity.\n\n    function supportsInterface(bytes4 interfaceId)\n        public\n        view\n        override(ERC721, ERC721Enumerable)\n        returns (bool)\n    {\n        return super.supportsInterface(interfaceId);\n    }\n}",
  "sourcePath": "/Users/timothyshen/bnb-chain-tutorial/05-How to create a NFT Mint on BSC/contracts/NFTCollection.sol",
  "compiler": {
    "name": "solc",
    "version": "0.8.13+commit.abaa5c0e.Emscripten.clang"
  },
  "schemaVersion": "3.4.13",
  "updatedAt": "2023-04-05T17:25:17.623Z",
  "devdoc": {
    "kind": "dev",
    "methods": {
      "approve(address,uint256)": {
        "details": "See {IERC721-approve}."
      },
      "balanceOf(address)": {
        "details": "See {IERC721-balanceOf}."
      },
      "getApproved(uint256)": {
        "details": "See {IERC721-getApproved}."
      },
      "isApprovedForAll(address,address)": {
        "details": "See {IERC721-isApprovedForAll}."
      },
      "name()": {
        "details": "See {IERC721Metadata-name}."
      },
      "owner()": {
        "details": "Returns the address of the current owner."
      },
      "ownerOf(uint256)": {
        "details": "See {IERC721-ownerOf}."
      },
      "paused()": {
        "details": "Returns true if the contract is paused, and false otherwise."
      },
      "renounceOwnership()": {
        "details": "Leaves the contract without owner. It will not be possible to call `onlyOwner` functions anymore. Can only be called by the current owner. NOTE: Renouncing ownership will leave the contract without an owner, thereby removing any functionality that is only available to the owner."
      },
      "safeTransferFrom(address,address,uint256)": {
        "details": "See {IERC721-safeTransferFrom}."
      },
      "safeTransferFrom(address,address,uint256,bytes)": {
        "details": "See {IERC721-safeTransferFrom}."
      },
      "setApprovalForAll(address,bool)": {
        "details": "See {IERC721-setApprovalForAll}."
      },
      "symbol()": {
        "details": "See {IERC721Metadata-symbol}."
      },
      "tokenByIndex(uint256)": {
        "details": "See {IERC721Enumerable-tokenByIndex}."
      },
      "tokenOfOwnerByIndex(address,uint256)": {
        "details": "See {IERC721Enumerable-tokenOfOwnerByIndex}."
      },
      "tokenURI(uint256)": {
        "details": "See {IERC721Metadata-tokenURI}."
      },
      "totalSupply()": {
        "details": "See {IERC721Enumerable-totalSupply}."
      },
      "transferFrom(address,address,uint256)": {
        "details": "See {IERC721-transferFrom}."
      },
      "transferOwnership(address)": {
        "details": "Transfers ownership of the contract to a new account (`newOwner`). Can only be called by the current owner."
      }
    },
    "version": 1
  },
  "userdoc": {
    "kind": "user",
    "methods": {},
    "version": 1
  }
}